{
  "_format": "hh-sol-artifact-1",
  "contractName": "Parking",
  "sourceName": "contracts/Parking.sol",
  "abi": [
    {
      "inputs": [],
      "stateMutability": "nonpayable",
      "type": "constructor"
    },
    {
      "anonymous": false,
      "inputs": [
        {
          "indexed": true,
          "internalType": "address",
          "name": "member",
          "type": "address"
        },
        {
          "indexed": false,
          "internalType": "string",
          "name": "username",
          "type": "string"
        },
        {
          "indexed": false,
          "internalType": "string",
          "name": "licensePlate",
          "type": "string"
        },
        {
          "indexed": false,
          "internalType": "address",
          "name": "memberAddr",
          "type": "address"
        },
        {
          "indexed": false,
          "internalType": "bool",
          "name": "isRegistered",
          "type": "bool"
        }
      ],
      "name": "LogMemberRegistered",
      "type": "event"
    },
    {
      "anonymous": false,
      "inputs": [
        {
          "indexed": false,
          "internalType": "address",
          "name": "member",
          "type": "address"
        }
      ],
      "name": "LogMembershipRevoked",
      "type": "event"
    },
    {
      "anonymous": false,
      "inputs": [
        {
          "indexed": true,
          "internalType": "string",
          "name": "plate",
          "type": "string"
        },
        {
          "indexed": false,
          "internalType": "uint256",
          "name": "numOfMinutes",
          "type": "uint256"
        },
        {
          "indexed": false,
          "internalType": "enum Parking.ParkingZone",
          "name": "zone",
          "type": "uint8"
        }
      ],
      "name": "LogTicketBought",
      "type": "event"
    },
    {
      "anonymous": false,
      "inputs": [
        {
          "indexed": true,
          "internalType": "string",
          "name": "plate",
          "type": "string"
        },
        {
          "indexed": false,
          "internalType": "uint256",
          "name": "balanceLeft",
          "type": "uint256"
        }
      ],
      "name": "LogTicketCanceled",
      "type": "event"
    },
    {
      "anonymous": false,
      "inputs": [
        {
          "indexed": true,
          "internalType": "string",
          "name": "plate",
          "type": "string"
        },
        {
          "indexed": false,
          "internalType": "uint256",
          "name": "numOfMinutes",
          "type": "uint256"
        },
        {
          "indexed": false,
          "internalType": "enum Parking.ParkingZone",
          "name": "zone",
          "type": "uint8"
        }
      ],
      "name": "LogTicketRenewed",
      "type": "event"
    },
    {
      "anonymous": false,
      "inputs": [
        {
          "indexed": true,
          "internalType": "string",
          "name": "oldPlate",
          "type": "string"
        },
        {
          "indexed": false,
          "internalType": "string",
          "name": "newPlate",
          "type": "string"
        }
      ],
      "name": "LogTicketTransferred",
      "type": "event"
    },
    {
      "anonymous": false,
      "inputs": [
        {
          "indexed": false,
          "internalType": "uint256",
          "name": "priceForMember",
          "type": "uint256"
        },
        {
          "indexed": false,
          "internalType": "uint256",
          "name": "priceForNonMember",
          "type": "uint256"
        },
        {
          "indexed": false,
          "internalType": "enum Parking.ParkingZone",
          "name": "zone",
          "type": "uint8"
        }
      ],
      "name": "LogZonePriceChanged",
      "type": "event"
    },
    {
      "anonymous": false,
      "inputs": [
        {
          "indexed": true,
          "internalType": "address",
          "name": "previousOwner",
          "type": "address"
        },
        {
          "indexed": true,
          "internalType": "address",
          "name": "newOwner",
          "type": "address"
        }
      ],
      "name": "OwnershipTransferred",
      "type": "event"
    },
    {
      "anonymous": false,
      "inputs": [
        {
          "indexed": false,
          "internalType": "address",
          "name": "account",
          "type": "address"
        }
      ],
      "name": "Paused",
      "type": "event"
    },
    {
      "anonymous": false,
      "inputs": [
        {
          "indexed": false,
          "internalType": "address",
          "name": "account",
          "type": "address"
        }
      ],
      "name": "Unpaused",
      "type": "event"
    },
    {
      "inputs": [
        {
          "internalType": "string",
          "name": "plate",
          "type": "string"
        },
        {
          "internalType": "uint256",
          "name": "numOfMinutes",
          "type": "uint256"
        },
        {
          "internalType": "enum Parking.ParkingZone",
          "name": "zone",
          "type": "uint8"
        },
        {
          "internalType": "uint256",
          "name": "startTimestamp",
          "type": "uint256"
        }
      ],
      "name": "buyTicket",
      "outputs": [],
      "stateMutability": "payable",
      "type": "function"
    },
    {
      "inputs": [
        {
          "internalType": "string",
          "name": "plate",
          "type": "string"
        }
      ],
      "name": "cancelTicket",
      "outputs": [],
      "stateMutability": "nonpayable",
      "type": "function"
    },
    {
      "inputs": [
        {
          "internalType": "address",
          "name": "member",
          "type": "address"
        }
      ],
      "name": "getMemberDetails",
      "outputs": [
        {
          "internalType": "string",
          "name": "username",
          "type": "string"
        },
        {
          "internalType": "string",
          "name": "licensePlate",
          "type": "string"
        },
        {
          "internalType": "address",
          "name": "memberAddr",
          "type": "address"
        },
        {
          "internalType": "bool",
          "name": "isRegistered",
          "type": "bool"
        }
      ],
      "stateMutability": "view",
      "type": "function"
    },
    {
      "inputs": [
        {
          "internalType": "enum Parking.ParkingZone",
          "name": "zone",
          "type": "uint8"
        }
      ],
      "name": "getParkingZoneData",
      "outputs": [
        {
          "internalType": "uint256[]",
          "name": "",
          "type": "uint256[]"
        },
        {
          "internalType": "uint256[]",
          "name": "",
          "type": "uint256[]"
        },
        {
          "internalType": "bool",
          "name": "",
          "type": "bool"
        },
        {
          "internalType": "uint256",
          "name": "",
          "type": "uint256"
        }
      ],
      "stateMutability": "view",
      "type": "function"
    },
    {
      "inputs": [
        {
          "internalType": "string",
          "name": "plate",
          "type": "string"
        }
      ],
      "name": "getTicket",
      "outputs": [
        {
          "internalType": "uint256",
          "name": "",
          "type": "uint256"
        },
        {
          "internalType": "enum Parking.ParkingZone",
          "name": "",
          "type": "uint8"
        }
      ],
      "stateMutability": "view",
      "type": "function"
    },
    {
      "inputs": [
        {
          "internalType": "address",
          "name": "member",
          "type": "address"
        }
      ],
      "name": "isMember",
      "outputs": [
        {
          "internalType": "bool",
          "name": "",
          "type": "bool"
        }
      ],
      "stateMutability": "view",
      "type": "function"
    },
    {
      "inputs": [
        {
          "internalType": "string",
          "name": "plate",
          "type": "string"
        },
        {
          "internalType": "enum Parking.ParkingZone",
          "name": "zone",
          "type": "uint8"
        }
      ],
      "name": "isTicketValid",
      "outputs": [
        {
          "internalType": "bool",
          "name": "",
          "type": "bool"
        }
      ],
      "stateMutability": "view",
      "type": "function"
    },
    {
      "inputs": [],
      "name": "owner",
      "outputs": [
        {
          "internalType": "address",
          "name": "",
          "type": "address"
        }
      ],
      "stateMutability": "view",
      "type": "function"
    },
    {
      "inputs": [],
      "name": "pause",
      "outputs": [],
      "stateMutability": "nonpayable",
      "type": "function"
    },
    {
      "inputs": [],
      "name": "paused",
      "outputs": [
        {
          "internalType": "bool",
          "name": "",
          "type": "bool"
        }
      ],
      "stateMutability": "view",
      "type": "function"
    },
    {
      "inputs": [
        {
          "internalType": "string",
          "name": "username",
          "type": "string"
        },
        {
          "internalType": "string",
          "name": "licensePlate",
          "type": "string"
        }
      ],
      "name": "registerMembership",
      "outputs": [],
      "stateMutability": "nonpayable",
      "type": "function"
    },
    {
      "inputs": [],
      "name": "renounceOwnership",
      "outputs": [],
      "stateMutability": "nonpayable",
      "type": "function"
    },
    {
      "inputs": [],
      "name": "revokeMemberships",
      "outputs": [],
      "stateMutability": "nonpayable",
      "type": "function"
    },
    {
      "inputs": [
        {
          "internalType": "address",
          "name": "newOwner",
          "type": "address"
        }
      ],
      "name": "transferOwnership",
      "outputs": [],
      "stateMutability": "nonpayable",
      "type": "function"
    },
    {
      "inputs": [
        {
          "internalType": "string",
          "name": "oldPlate",
          "type": "string"
        },
        {
          "internalType": "string",
          "name": "newPlate",
          "type": "string"
        },
        {
          "internalType": "address",
          "name": "newOwner",
          "type": "address"
        }
      ],
      "name": "transferTicket",
      "outputs": [],
      "stateMutability": "nonpayable",
      "type": "function"
    },
    {
      "inputs": [],
      "name": "unpause",
      "outputs": [],
      "stateMutability": "nonpayable",
      "type": "function"
    },
    {
      "inputs": [
        {
          "internalType": "uint256",
          "name": "newPrice",
          "type": "uint256"
        },
        {
          "internalType": "enum Parking.ParkingZone",
          "name": "zone",
          "type": "uint8"
        }
      ],
      "name": "updateZonePriceForMember",
      "outputs": [],
      "stateMutability": "nonpayable",
      "type": "function"
    },
    {
      "inputs": [
        {
          "internalType": "uint256",
          "name": "newPrice",
          "type": "uint256"
        },
        {
          "internalType": "enum Parking.ParkingZone",
          "name": "zone",
          "type": "uint8"
        }
      ],
      "name": "updateZonePriceForNonMember",
      "outputs": [],
      "stateMutability": "nonpayable",
      "type": "function"
    },
    {
      "inputs": [
        {
          "internalType": "uint256",
          "name": "value",
          "type": "uint256"
        }
      ],
      "name": "withdraw",
      "outputs": [],
      "stateMutability": "nonpayable",
      "type": "function"
    },
    {
      "inputs": [
        {
          "internalType": "enum Parking.ParkingZone",
          "name": "zone",
          "type": "uint8"
        }
      ],
      "name": "zonePricePerMinute",
      "outputs": [
        {
          "internalType": "uint256",
          "name": "priceForNonMember",
          "type": "uint256"
        },
        {
          "internalType": "uint256",
          "name": "priceForMember",
          "type": "uint256"
        }
      ],
      "stateMutability": "view",
      "type": "function"
    },
    {
      "inputs": [
        {
          "internalType": "enum Parking.ParkingZone",
          "name": "",
          "type": "uint8"
        }
      ],
      "name": "zonePricePerMinuteForMember",
      "outputs": [
        {
          "internalType": "uint256",
          "name": "",
          "type": "uint256"
        }
      ],
      "stateMutability": "view",
      "type": "function"
    },
    {
      "inputs": [
        {
          "internalType": "enum Parking.ParkingZone",
          "name": "",
          "type": "uint8"
        }
      ],
      "name": "zonePricePerMinuteForNonMember",
      "outputs": [
        {
          "internalType": "uint256",
          "name": "",
          "type": "uint256"
        }
      ],
      "stateMutability": "view",
      "type": "function"
    },
    {
      "stateMutability": "payable",
      "type": "receive"
    }
  ],
  "bytecode": "0x60806040523480156200001157600080fd5b50620000326200002662000a9260201b60201c565b62000a9a60201b60201c565b60008060146101000a81548160ff0219169083151502179055506605af3107a400006002600080600881111562000092577f4e487b7100000000000000000000000000000000000000000000000000000000600052602160045260246000fd5b6008811115620000cb577f4e487b7100000000000000000000000000000000000000000000000000000000600052602160045260246000fd5b8152602001908152602001600020819055506605af3107a40000600260006001600881111562000124577f4e487b7100000000000000000000000000000000000000000000000000000000600052602160045260246000fd5b60088111156200015d577f4e487b7100000000000000000000000000000000000000000000000000000000600052602160045260246000fd5b8152602001908152602001600020819055506605af3107a400006002600060026008811115620001b6577f4e487b7100000000000000000000000000000000000000000000000000000000600052602160045260246000fd5b6008811115620001ef577f4e487b7100000000000000000000000000000000000000000000000000000000600052602160045260246000fd5b8152602001908152602001600020819055506605af3107a40000600260006003600881111562000248577f4e487b7100000000000000000000000000000000000000000000000000000000600052602160045260246000fd5b600881111562000281577f4e487b7100000000000000000000000000000000000000000000000000000000600052602160045260246000fd5b8152602001908152602001600020819055506605af3107a400006002600060046008811115620002da577f4e487b7100000000000000000000000000000000000000000000000000000000600052602160045260246000fd5b600881111562000313577f4e487b7100000000000000000000000000000000000000000000000000000000600052602160045260246000fd5b8152602001908152602001600020819055506605af3107a4000060026000600560088111156200036c577f4e487b7100000000000000000000000000000000000000000000000000000000600052602160045260246000fd5b6008811115620003a5577f4e487b7100000000000000000000000000000000000000000000000000000000600052602160045260246000fd5b8152602001908152602001600020819055506605af3107a400006002600060066008811115620003fe577f4e487b7100000000000000000000000000000000000000000000000000000000600052602160045260246000fd5b600881111562000437577f4e487b7100000000000000000000000000000000000000000000000000000000600052602160045260246000fd5b8152602001908152602001600020819055506605af3107a40000600260006007600881111562000490577f4e487b7100000000000000000000000000000000000000000000000000000000600052602160045260246000fd5b6008811115620004c9577f4e487b7100000000000000000000000000000000000000000000000000000000600052602160045260246000fd5b8152602001908152602001600020819055506605af3107a400006002600060088081111562000521577f4e487b7100000000000000000000000000000000000000000000000000000000600052602160045260246000fd5b60088111156200055a577f4e487b7100000000000000000000000000000000000000000000000000000000600052602160045260246000fd5b815260200190815260200160002081905550660bb9551fc2400060036000806008811115620005b2577f4e487b7100000000000000000000000000000000000000000000000000000000600052602160045260246000fd5b6008811115620005eb577f4e487b7100000000000000000000000000000000000000000000000000000000600052602160045260246000fd5b815260200190815260200160002081905550660bb9551fc24000600360006001600881111562000644577f4e487b7100000000000000000000000000000000000000000000000000000000600052602160045260246000fd5b60088111156200067d577f4e487b7100000000000000000000000000000000000000000000000000000000600052602160045260246000fd5b815260200190815260200160002081905550660bb9551fc240006003600060026008811115620006d6577f4e487b7100000000000000000000000000000000000000000000000000000000600052602160045260246000fd5b60088111156200070f577f4e487b7100000000000000000000000000000000000000000000000000000000600052602160045260246000fd5b815260200190815260200160002081905550660bb9551fc24000600360006003600881111562000768577f4e487b7100000000000000000000000000000000000000000000000000000000600052602160045260246000fd5b6008811115620007a1577f4e487b7100000000000000000000000000000000000000000000000000000000600052602160045260246000fd5b815260200190815260200160002081905550660bb9551fc240006003600060046008811115620007fa577f4e487b7100000000000000000000000000000000000000000000000000000000600052602160045260246000fd5b600881111562000833577f4e487b7100000000000000000000000000000000000000000000000000000000600052602160045260246000fd5b815260200190815260200160002081905550660bb9551fc2400060036000600560088111156200088c577f4e487b7100000000000000000000000000000000000000000000000000000000600052602160045260246000fd5b6008811115620008c5577f4e487b7100000000000000000000000000000000000000000000000000000000600052602160045260246000fd5b815260200190815260200160002081905550660bb9551fc2400060036000600660088111156200091e577f4e487b7100000000000000000000000000000000000000000000000000000000600052602160045260246000fd5b600881111562000957577f4e487b7100000000000000000000000000000000000000000000000000000000600052602160045260246000fd5b815260200190815260200160002081905550660bb9551fc240006003600060076008811115620009b0577f4e487b7100000000000000000000000000000000000000000000000000000000600052602160045260246000fd5b6008811115620009e9577f4e487b7100000000000000000000000000000000000000000000000000000000600052602160045260246000fd5b815260200190815260200160002081905550660bb9551fc240006003600060088081111562000a41577f4e487b7100000000000000000000000000000000000000000000000000000000600052602160045260246000fd5b600881111562000a7a577f4e487b7100000000000000000000000000000000000000000000000000000000600052602160045260246000fd5b81526020019081526020016000208190555062000b5e565b600033905090565b60008060009054906101000a900473ffffffffffffffffffffffffffffffffffffffff169050816000806101000a81548173ffffffffffffffffffffffffffffffffffffffff021916908373ffffffffffffffffffffffffffffffffffffffff1602179055508173ffffffffffffffffffffffffffffffffffffffff168173ffffffffffffffffffffffffffffffffffffffff167f8be0079c531659141344cd1fd0a4f28419497f9722a3daafe3b4186f6b6457e060405160405180910390a35050565b613f9c8062000b6e6000396000f3fe6080604052600436106101395760003560e01c80638456cb59116100ab578063cd54490b1161006f578063cd54490b14610422578063db2a54c61461045f578063dc80c62014610488578063f22035d3146104a4578063f2fde38b146104bb578063fc2a783e146104e457610140565b80638456cb59146103515780638c812a91146103685780638da5cb5b14610391578063a230c524146103bc578063c755ec3c146103f957610140565b806351f7b443116100fd57806351f7b443146102145780635c975abb14610252578063715018a61461027d5780637265a97c1461029457806377b7c210146102d457806383fd09541461031157610140565b8063251ead00146101455780632e1a7d4d1461016e5780633f4ba83a14610197578063439f9b2a146101ae5780634b243b97146101eb57610140565b3661014057005b600080fd5b34801561015157600080fd5b5061016c60048036038101906101679190612dc6565b610522565b005b34801561017a57600080fd5b5061019560048036038101906101909190612d9d565b610674565b005b3480156101a357600080fd5b506101ac61076f565b005b3480156101ba57600080fd5b506101d560048036038101906101d09190612be3565b610789565b6040516101e291906132a6565b60405180910390f35b3480156101f757600080fd5b50610212600480360381019061020d9190612dc6565b610860565b005b34801561022057600080fd5b5061023b60048036038101906102369190612ba2565b6109b2565b6040516102499291906135d1565b60405180910390f35b34801561025e57600080fd5b50610267610a0f565b60405161027491906132a6565b60405180910390f35b34801561028957600080fd5b50610292610a25565b005b3480156102a057600080fd5b506102bb60048036038101906102b69190612b79565b610a39565b6040516102cb9493929190613253565b60405180910390f35b3480156102e057600080fd5b506102fb60048036038101906102f69190612b79565b610bca565b60405161030891906135b6565b60405180910390f35b34801561031d57600080fd5b5061033860048036038101906103339190612b50565b610be2565b60405161034894939291906132e3565b60405180910390f35b34801561035d57600080fd5b50610366610f7e565b005b34801561037457600080fd5b5061038f600480360381019061038a9190612ca3565b610f98565b005b34801561039d57600080fd5b506103a66112cc565b6040516103b39190613238565b60405180910390f35b3480156103c857600080fd5b506103e360048036038101906103de9190612b50565b6112f5565b6040516103f091906132a6565b60405180910390f35b34801561040557600080fd5b50610420600480360381019061041b9190612ba2565b6113f6565b005b34801561042e57600080fd5b5061044960048036038101906104449190612b79565b6117a3565b60405161045691906135b6565b60405180910390f35b34801561046b57600080fd5b5061048660048036038101906104819190612c37565b6117bb565b005b6104a2600480360381019061049d9190612d22565b611a75565b005b3480156104b057600080fd5b506104b9612324565b005b3480156104c757600080fd5b506104e260048036038101906104dd9190612b50565b61258c565b005b3480156104f057600080fd5b5061050b60048036038101906105069190612b79565b612610565b6040516105199291906135fa565b60405180910390f35b61052a612724565b8160026000836008811115610568577f4e487b7100000000000000000000000000000000000000000000000000000000600052602160045260246000fd5b60088111156105a0577f4e487b7100000000000000000000000000000000000000000000000000000000600052602160045260246000fd5b8152602001908152602001600020819055507ff635f574e59451cbc45417143cf773c5c3f4a2985ff0e8837b23874a051240a88260036000846008811115610611577f4e487b7100000000000000000000000000000000000000000000000000000000600052602160045260246000fd5b6008811115610649577f4e487b7100000000000000000000000000000000000000000000000000000000600052602160045260246000fd5b8152602001908152602001600020548360405161066893929190613623565b60405180910390a15050565b61067c612724565b478111156106bf576040517f08c379a00000000000000000000000000000000000000000000000000000000081526004016106b690613336565b60405180910390fd5b60003373ffffffffffffffffffffffffffffffffffffffff16826040516106e590613223565b60006040518083038185875af1925050503d8060008114610722576040519150601f19603f3d011682016040523d82523d6000602084013e610727565b606091505b505090508061076b576040517f08c379a0000000000000000000000000000000000000000000000000000000008152600401610762906134d6565b60405180910390fd5b5050565b610777612724565b61077f6127a2565b6107876127eb565b565b60008160088111156107c4577f4e487b7100000000000000000000000000000000000000000000000000000000600052602160045260246000fd5b6004846040516107d4919061320c565b908152602001604051809103902060010160149054906101000a900460ff16600881111561082b577f4e487b7100000000000000000000000000000000000000000000000000000000600052602160045260246000fd5b148015610858575042600484604051610844919061320c565b908152602001604051809103902060000154115b905092915050565b610868612724565b81600360008360088111156108a6577f4e487b7100000000000000000000000000000000000000000000000000000000600052602160045260246000fd5b60088111156108de577f4e487b7100000000000000000000000000000000000000000000000000000000600052602160045260246000fd5b8152602001908152602001600020819055507ff635f574e59451cbc45417143cf773c5c3f4a2985ff0e8837b23874a051240a86002600083600881111561094e577f4e487b7100000000000000000000000000000000000000000000000000000000600052602160045260246000fd5b6008811115610986577f4e487b7100000000000000000000000000000000000000000000000000000000600052602160045260246000fd5b81526020019081526020016000205483836040516109a693929190613623565b60405180910390a15050565b6000806004836040516109c5919061320c565b9081526020016040518091039020600001546004846040516109e7919061320c565b908152602001604051809103902060010160149054906101000a900460ff1691509150915091565b60008060149054906101000a900460ff16905090565b610a2d612724565b610a37600061284d565b565b606080600080600060016000876008811115610a7e577f4e487b7100000000000000000000000000000000000000000000000000000000600052602160045260246000fd5b6008811115610ab6577f4e487b7100000000000000000000000000000000000000000000000000000000600052602160045260246000fd5b815260200190815260200160002060405180608001604052908160008201805480602002602001604051908101604052809291908181526020018280548015610b1e57602002820191906000526020600020905b815481526020019060010190808311610b0a575b5050505050815260200160018201805480602002602001604051908101604052809291908181526020018280548015610b7657602002820191906000526020600020905b815481526020019060010190808311610b62575b505050505081526020016002820160009054906101000a900460ff16151515158152602001600382015481525050905080600001518160200151826040015183606001519450945094509450509193509193565b60026020528060005260406000206000915090505481565b606080600080610bf06112cc565b73ffffffffffffffffffffffffffffffffffffffff163373ffffffffffffffffffffffffffffffffffffffff161480610c5457508473ffffffffffffffffffffffffffffffffffffffff163373ffffffffffffffffffffffffffffffffffffffff16145b610c93576040517f08c379a0000000000000000000000000000000000000000000000000000000008152600401610c8a90613416565b60405180910390fd5b600660008673ffffffffffffffffffffffffffffffffffffffff1673ffffffffffffffffffffffffffffffffffffffff16815260200190815260200160002060009054906101000a900460ff168015610d385750600560008673ffffffffffffffffffffffffffffffffffffffff1673ffffffffffffffffffffffffffffffffffffffff16815260200190815260200160002060020160149054906101000a900460ff165b610d77576040517f08c379a0000000000000000000000000000000000000000000000000000000008152600401610d6e90613496565b60405180910390fd5b6000600560008773ffffffffffffffffffffffffffffffffffffffff1673ffffffffffffffffffffffffffffffffffffffff168152602001908152602001600020604051806080016040529081600082018054610dd3906138df565b80601f0160208091040260200160405190810160405280929190818152602001828054610dff906138df565b8015610e4c5780601f10610e2157610100808354040283529160200191610e4c565b820191906000526020600020905b815481529060010190602001808311610e2f57829003601f168201915b50505050508152602001600182018054610e65906138df565b80601f0160208091040260200160405190810160405280929190818152602001828054610e91906138df565b8015610ede5780601f10610eb357610100808354040283529160200191610ede565b820191906000526020600020905b815481529060010190602001808311610ec157829003601f168201915b505050505081526020016002820160009054906101000a900473ffffffffffffffffffffffffffffffffffffffff1673ffffffffffffffffffffffffffffffffffffffff1673ffffffffffffffffffffffffffffffffffffffff1681526020016002820160149054906101000a900460ff161515151581525050905080600001518160200151826040015183606001519450945094509450509193509193565b610f86612724565b610f8e612911565b610f9661295b565b565b82600481604051610fa9919061320c565b908152602001604051809103902060010160009054906101000a900473ffffffffffffffffffffffffffffffffffffffff1673ffffffffffffffffffffffffffffffffffffffff163373ffffffffffffffffffffffffffffffffffffffff1614611048576040517f08c379a000000000000000000000000000000000000000000000000000000000815260040161103f90613556565b60405180910390fd5b42600484604051611059919061320c565b90815260200160405180910390206000015411156110ac576040517f08c379a00000000000000000000000000000000000000000000000000000000081526004016110a3906134f6565b60405180910390fd5b60006004856040516110be919061320c565b908152602001604051809103902090506040518060600160405280826000015481526020018473ffffffffffffffffffffffffffffffffffffffff1681526020018260010160149054906101000a900460ff166008811115611149577f4e487b7100000000000000000000000000000000000000000000000000000000600052602160045260246000fd5b81525060048560405161115c919061320c565b90815260200160405180910390206000820151816000015560208201518160010160006101000a81548173ffffffffffffffffffffffffffffffffffffffff021916908373ffffffffffffffffffffffffffffffffffffffff16021790555060408201518160010160146101000a81548160ff0219169083600881111561120c577f4e487b7100000000000000000000000000000000000000000000000000000000600052602160045260246000fd5b0217905550905050600485604051611224919061320c565b90815260200160405180910390206000808201600090556001820160006101000a81549073ffffffffffffffffffffffffffffffffffffffff02191690556001820160146101000a81549060ff0219169055505084604051611286919061320c565b60405180910390207f7b09e140ecaeee8f81c5006a4110264f09b08ceff4d00aeba43461d3d589bf69856040516112bd91906132c1565b60405180910390a25050505050565b60008060009054906101000a900473ffffffffffffffffffffffffffffffffffffffff16905090565b60006112ff6112cc565b73ffffffffffffffffffffffffffffffffffffffff163373ffffffffffffffffffffffffffffffffffffffff16148061136357508173ffffffffffffffffffffffffffffffffffffffff163373ffffffffffffffffffffffffffffffffffffffff16145b6113a2576040517f08c379a000000000000000000000000000000000000000000000000000000000815260040161139990613416565b60405180910390fd5b600660008373ffffffffffffffffffffffffffffffffffffffff1673ffffffffffffffffffffffffffffffffffffffff16815260200190815260200160002060009054906101000a900460ff169050919050565b6113fe612911565b6000600482604051611410919061320c565b90815260200160405180910390209050600081600001541415611468576040517f08c379a000000000000000000000000000000000000000000000000000000000815260040161145f90613376565b60405180910390fd5b6000816000015442101561160f57600042836000015461148891906137fc565b905060006114b98460010160009054906101000a900473ffffffffffffffffffffffffffffffffffffffff166112f5565b1561155a57600260008560010160149054906101000a900460ff16600881111561150c577f4e487b7100000000000000000000000000000000000000000000000000000000600052602160045260246000fd5b6008811115611544577f4e487b7100000000000000000000000000000000000000000000000000000000600052602160045260246000fd5b81526020019081526020016000205490506115f2565b600360008560010160149054906101000a900460ff1660088111156115a8577f4e487b7100000000000000000000000000000000000000000000000000000000600052602160045260246000fd5b60088111156115e0577f4e487b7100000000000000000000000000000000000000000000000000000000600052602160045260246000fd5b81526020019081526020016000205490505b80603c836116009190613771565b61160a91906137a2565b925050505b600066038d7ea4c680009050600082111561163357808261163091906137fc565b91505b6000821015611677576040517f08c379a000000000000000000000000000000000000000000000000000000000815260040161166e90613396565b60405180910390fd5b600484604051611687919061320c565b90815260200160405180910390206000808201600090556001820160006101000a81549073ffffffffffffffffffffffffffffffffffffffff02191690556001820160146101000a81549060ff021916905550506000821115611750578260010160009054906101000a900473ffffffffffffffffffffffffffffffffffffffff1673ffffffffffffffffffffffffffffffffffffffff166108fc839081150290604051600060405180830381858888f1935050505015801561174e573d6000803e3d6000fd5b505b8360405161175e919061320c565b60405180910390207fe95c73ebcd15155aa5ea02f78b87d824272b83e2d504fb346a88e0a08a001b3f8360405161179591906135b6565b60405180910390a250505050565b60036020528060005260406000206000915090505481565b60001515600560003373ffffffffffffffffffffffffffffffffffffffff1673ffffffffffffffffffffffffffffffffffffffff16815260200190815260200160002060020160149054906101000a900460ff1615151480156118685750600660003373ffffffffffffffffffffffffffffffffffffffff1673ffffffffffffffffffffffffffffffffffffffff16815260200190815260200160002060009054906101000a900460ff16155b6118a7576040517f08c379a000000000000000000000000000000000000000000000000000000000815260040161189e90613596565b60405180910390fd5b6001600660003373ffffffffffffffffffffffffffffffffffffffff1673ffffffffffffffffffffffffffffffffffffffff16815260200190815260200160002060006101000a81548160ff02191690831515021790555060405180608001604052808381526020018281526020013373ffffffffffffffffffffffffffffffffffffffff16815260200160011515815250600560003373ffffffffffffffffffffffffffffffffffffffff1673ffffffffffffffffffffffffffffffffffffffff16815260200190815260200160002060008201518160000190805190602001906119949291906129c6565b5060208201518160010190805190602001906119b19291906129c6565b5060408201518160020160006101000a81548173ffffffffffffffffffffffffffffffffffffffff021916908373ffffffffffffffffffffffffffffffffffffffff16021790555060608201518160020160146101000a81548160ff0219169083151502179055509050503373ffffffffffffffffffffffffffffffffffffffff167f619e6786941235fd85e2f274c6783c1916e425053ec39a51261e6c4c9cc0c52d8383336001604051611a6994939291906132e3565b60405180910390a25050565b611a7d612911565b60008311611ac0576040517f08c379a0000000000000000000000000000000000000000000000000000000008152600401611ab7906133f6565b60405180910390fd5b42811015611b03576040517f08c379a0000000000000000000000000000000000000000000000000000000008152600401611afa90613476565b60405180910390fd5b600060016000846008811115611b42577f4e487b7100000000000000000000000000000000000000000000000000000000600052602160045260246000fd5b6008811115611b7a577f4e487b7100000000000000000000000000000000000000000000000000000000600052602160045260246000fd5b815260200190815260200160002090508060020160009054906101000a900460ff1615611d915760005b8160030154811015611d8f57816001018181548110611bec577f4e487b7100000000000000000000000000000000000000000000000000000000600052603260045260246000fd5b9060005260206000200154831180611c495750816000018181548110611c3b577f4e487b7100000000000000000000000000000000000000000000000000000000600052603260045260246000fd5b906000526020600020015483105b611c88576040517f08c379a0000000000000000000000000000000000000000000000000000000008152600401611c7f906133b6565b60405180910390fd5b816000018181548110611cc4577f4e487b7100000000000000000000000000000000000000000000000000000000600052603260045260246000fd5b9060005260206000200154831015611d7c576000603c86611ce591906137a2565b9050826000018281548110611d23577f4e487b7100000000000000000000000000000000000000000000000000000000600052603260045260246000fd5b90600052602060002001548185611d3a919061371b565b10611d7a576040517f08c379a0000000000000000000000000000000000000000000000000000000008152600401611d7190613536565b60405180910390fd5b505b8080611d8790613942565b915050611ba4565b505b6000611d9c336112f5565b15611e375760026000856008811115611dde577f4e487b7100000000000000000000000000000000000000000000000000000000600052602160045260246000fd5b6008811115611e16577f4e487b7100000000000000000000000000000000000000000000000000000000600052602160045260246000fd5b81526020019081526020016000205485611e3091906137a2565b9050611ec9565b60036000856008811115611e74577f4e487b7100000000000000000000000000000000000000000000000000000000600052602160045260246000fd5b6008811115611eac577f4e487b7100000000000000000000000000000000000000000000000000000000600052602160045260246000fd5b81526020019081526020016000205485611ec691906137a2565b90505b80341015611f0c576040517f08c379a0000000000000000000000000000000000000000000000000000000008152600401611f0390613436565b60405180910390fd5b60008134611f1a91906137fc565b905060004290506000818611611f305781611f32565b855b9050600060048a604051611f46919061320c565b908152602001604051809103902090506000603c8a611f6591906137a2565b905060008184611f75919061371b565b905084836000015411156120b557896008811115611fbc577f4e487b7100000000000000000000000000000000000000000000000000000000600052602160045260246000fd5b8360010160149054906101000a900460ff166008811115612006577f4e487b7100000000000000000000000000000000000000000000000000000000600052602160045260246000fd5b14612046576040517f08c379a000000000000000000000000000000000000000000000000000000000815260040161203d90613576565b60405180910390fd5b8183600001600082825461205a919061371b565b925050819055508b60405161206f919061320c565b60405180910390207fd16529fb8a6a56de467232da502fe9a4c6b9d29b27e37756ec4d3a42e7605e708c8c6040516120a89291906135d1565b60405180910390a2612236565b60405180606001604052808281526020013373ffffffffffffffffffffffffffffffffffffffff1681526020018b600881111561211b577f4e487b7100000000000000000000000000000000000000000000000000000000600052602160045260246000fd5b81525060048d60405161212e919061320c565b90815260200160405180910390206000820151816000015560208201518160010160006101000a81548173ffffffffffffffffffffffffffffffffffffffff021916908373ffffffffffffffffffffffffffffffffffffffff16021790555060408201518160010160146101000a81548160ff021916908360088111156121de577f4e487b7100000000000000000000000000000000000000000000000000000000600052602160045260246000fd5b02179055509050508b6040516121f4919061320c565b60405180910390207febe98b70659ff1f7dbe0cb844f13916097b5899322ec27fe52fd830b1650e14b8c8c60405161222d9291906135d1565b60405180910390a25b60018860020160006101000a81548160ff0219169083151502179055506001886003016000828254612268919061371b565b9250508190555087600001849080600181540180825580915050600190039060005260206000200160009091909190915055876001018190806001815401808255809150506001900390600052602060002001600090919091909150556000861115612316573373ffffffffffffffffffffffffffffffffffffffff166108fc879081150290604051600060405180830381858888f19350505050158015612314573d6000803e3d6000fd5b505b505050505050505050505050565b60011515600560003373ffffffffffffffffffffffffffffffffffffffff1673ffffffffffffffffffffffffffffffffffffffff16815260200190815260200160002060020160149054906101000a900460ff1615151480156123d05750600660003373ffffffffffffffffffffffffffffffffffffffff1673ffffffffffffffffffffffffffffffffffffffff16815260200190815260200160002060009054906101000a900460ff165b61240f576040517f08c379a000000000000000000000000000000000000000000000000000000000815260040161240690613516565b60405180910390fd5b6000600660003373ffffffffffffffffffffffffffffffffffffffff1673ffffffffffffffffffffffffffffffffffffffff16815260200190815260200160002060006101000a81548160ff021916908315150217905550600660003373ffffffffffffffffffffffffffffffffffffffff1673ffffffffffffffffffffffffffffffffffffffff16815260200190815260200160002060006101000a81549060ff0219169055600560003373ffffffffffffffffffffffffffffffffffffffff1673ffffffffffffffffffffffffffffffffffffffff168152602001908152602001600020600080820160006125069190612a4c565b6001820160006125169190612a4c565b6002820160006101000a81549073ffffffffffffffffffffffffffffffffffffffff02191690556002820160146101000a81549060ff021916905550507f1160e91c42d9145f606e5c9df779d5e9825e6f5086a433d3a35c9f1332068b37336040516125829190613238565b60405180910390a1565b612594612724565b600073ffffffffffffffffffffffffffffffffffffffff168173ffffffffffffffffffffffffffffffffffffffff161415612604576040517f08c379a00000000000000000000000000000000000000000000000000000000081526004016125fb906133d6565b60405180910390fd5b61260d8161284d565b50565b60008060036000846008811115612650577f4e487b7100000000000000000000000000000000000000000000000000000000600052602160045260246000fd5b6008811115612688577f4e487b7100000000000000000000000000000000000000000000000000000000600052602160045260246000fd5b8152602001908152602001600020549150600260008460088111156126d6577f4e487b7100000000000000000000000000000000000000000000000000000000600052602160045260246000fd5b600881111561270e577f4e487b7100000000000000000000000000000000000000000000000000000000600052602160045260246000fd5b8152602001908152602001600020549050915091565b61272c6129be565b73ffffffffffffffffffffffffffffffffffffffff1661274a6112cc565b73ffffffffffffffffffffffffffffffffffffffff16146127a0576040517f08c379a0000000000000000000000000000000000000000000000000000000008152600401612797906134b6565b60405180910390fd5b565b6127aa610a0f565b6127e9576040517f08c379a00000000000000000000000000000000000000000000000000000000081526004016127e090613356565b60405180910390fd5b565b6127f36127a2565b60008060146101000a81548160ff0219169083151502179055507f5db9ee0a495bf2e6ff9c91a7834c1ba4fdd244a5e8aa4e537bd38aeae4b073aa6128366129be565b6040516128439190613238565b60405180910390a1565b60008060009054906101000a900473ffffffffffffffffffffffffffffffffffffffff169050816000806101000a81548173ffffffffffffffffffffffffffffffffffffffff021916908373ffffffffffffffffffffffffffffffffffffffff1602179055508173ffffffffffffffffffffffffffffffffffffffff168173ffffffffffffffffffffffffffffffffffffffff167f8be0079c531659141344cd1fd0a4f28419497f9722a3daafe3b4186f6b6457e060405160405180910390a35050565b612919610a0f565b15612959576040517f08c379a000000000000000000000000000000000000000000000000000000000815260040161295090613456565b60405180910390fd5b565b612963612911565b6001600060146101000a81548160ff0219169083151502179055507f62e78cea01bee320cd4e420270b5ea74000d11b0c9f74754ebdbfc544b05a2586129a76129be565b6040516129b49190613238565b60405180910390a1565b600033905090565b8280546129d2906138df565b90600052602060002090601f0160209004810192826129f45760008555612a3b565b82601f10612a0d57805160ff1916838001178555612a3b565b82800160010185558215612a3b579182015b82811115612a3a578251825591602001919060010190612a1f565b5b509050612a489190612a8c565b5090565b508054612a58906138df565b6000825580601f10612a6a5750612a89565b601f016020900490600052602060002090810190612a889190612a8c565b5b50565b5b80821115612aa5576000816000905550600101612a8d565b5090565b6000612abc612ab78461367f565b61365a565b905082815260208101848484011115612ad457600080fd5b612adf84828561389d565b509392505050565b600081359050612af681613f28565b92915050565b600081359050612b0b81613f3f565b92915050565b600082601f830112612b2257600080fd5b8135612b32848260208601612aa9565b91505092915050565b600081359050612b4a81613f4f565b92915050565b600060208284031215612b6257600080fd5b6000612b7084828501612ae7565b91505092915050565b600060208284031215612b8b57600080fd5b6000612b9984828501612afc565b91505092915050565b600060208284031215612bb457600080fd5b600082013567ffffffffffffffff811115612bce57600080fd5b612bda84828501612b11565b91505092915050565b60008060408385031215612bf657600080fd5b600083013567ffffffffffffffff811115612c1057600080fd5b612c1c85828601612b11565b9250506020612c2d85828601612afc565b9150509250929050565b60008060408385031215612c4a57600080fd5b600083013567ffffffffffffffff811115612c6457600080fd5b612c7085828601612b11565b925050602083013567ffffffffffffffff811115612c8d57600080fd5b612c9985828601612b11565b9150509250929050565b600080600060608486031215612cb857600080fd5b600084013567ffffffffffffffff811115612cd257600080fd5b612cde86828701612b11565b935050602084013567ffffffffffffffff811115612cfb57600080fd5b612d0786828701612b11565b9250506040612d1886828701612ae7565b9150509250925092565b60008060008060808587031215612d3857600080fd5b600085013567ffffffffffffffff811115612d5257600080fd5b612d5e87828801612b11565b9450506020612d6f87828801612b3b565b9350506040612d8087828801612afc565b9250506060612d9187828801612b3b565b91505092959194509250565b600060208284031215612daf57600080fd5b6000612dbd84828501612b3b565b91505092915050565b60008060408385031215612dd957600080fd5b6000612de785828601612b3b565b9250506020612df885828601612afc565b9150509250929050565b6000612e0e83836131ee565b60208301905092915050565b612e2381613830565b82525050565b6000612e34826136c0565b612e3e81856136e3565b9350612e49836136b0565b8060005b83811015612e7a578151612e618882612e02565b9750612e6c836136d6565b925050600181019050612e4d565b5085935050505092915050565b612e9081613842565b82525050565b612e9f8161388b565b82525050565b6000612eb0826136cb565b612eba81856136ff565b9350612eca8185602086016138ac565b612ed381613a76565b840191505092915050565b6000612ee9826136cb565b612ef38185613710565b9350612f038185602086016138ac565b80840191505092915050565b6000612f1c6032836136ff565b9150612f2782613a87565b604082019050919050565b6000612f3f6014836136ff565b9150612f4a82613ad6565b602082019050919050565b6000612f626025836136ff565b9150612f6d82613aff565b604082019050919050565b6000612f856020836136ff565b9150612f9082613b4e565b602082019050919050565b6000612fa8601b836136ff565b9150612fb382613b77565b602082019050919050565b6000612fcb6026836136ff565b9150612fd682613ba0565b604082019050919050565b6000612fee602b836136ff565b9150612ff982613bef565b604082019050919050565b60006130116027836136ff565b915061301c82613c3e565b604082019050919050565b60006130346012836136ff565b915061303f82613c8d565b602082019050919050565b60006130576010836136ff565b915061306282613cb6565b602082019050919050565b600061307a601b836136ff565b915061308582613cdf565b602082019050919050565b600061309d600c836136ff565b91506130a882613d08565b602082019050919050565b60006130c06020836136ff565b91506130cb82613d31565b602082019050919050565b60006130e36018836136ff565b91506130ee82613d5a565b602082019050919050565b6000613106603e836136ff565b915061311182613d83565b604082019050919050565b60006131296000836136f4565b915061313482613dd2565b600082019050919050565b600061314c6012836136ff565b915061315782613dd5565b602082019050919050565b600061316f6057836136ff565b915061317a82613dfe565b606082019050919050565b6000613192601f836136ff565b915061319d82613e73565b602082019050919050565b60006131b5603b836136ff565b91506131c082613e9c565b604082019050919050565b60006131d86010836136ff565b91506131e382613eeb565b602082019050919050565b6131f781613881565b82525050565b61320681613881565b82525050565b60006132188284612ede565b915081905092915050565b600061322e8261311c565b9150819050919050565b600060208201905061324d6000830184612e1a565b92915050565b6000608082019050818103600083015261326d8187612e29565b905081810360208301526132818186612e29565b90506132906040830185612e87565b61329d60608301846131fd565b95945050505050565b60006020820190506132bb6000830184612e87565b92915050565b600060208201905081810360008301526132db8184612ea5565b905092915050565b600060808201905081810360008301526132fd8187612ea5565b905081810360208301526133118186612ea5565b90506133206040830185612e1a565b61332d6060830184612e87565b95945050505050565b6000602082019050818103600083015261334f81612f0f565b9050919050565b6000602082019050818103600083015261336f81612f32565b9050919050565b6000602082019050818103600083015261338f81612f55565b9050919050565b600060208201905081810360008301526133af81612f78565b9050919050565b600060208201905081810360008301526133cf81612f9b565b9050919050565b600060208201905081810360008301526133ef81612fbe565b9050919050565b6000602082019050818103600083015261340f81612fe1565b9050919050565b6000602082019050818103600083015261342f81613004565b9050919050565b6000602082019050818103600083015261344f81613027565b9050919050565b6000602082019050818103600083015261346f8161304a565b9050919050565b6000602082019050818103600083015261348f8161306d565b9050919050565b600060208201905081810360008301526134af81613090565b9050919050565b600060208201905081810360008301526134cf816130b3565b9050919050565b600060208201905081810360008301526134ef816130d6565b9050919050565b6000602082019050818103600083015261350f816130f9565b9050919050565b6000602082019050818103600083015261352f8161313f565b9050919050565b6000602082019050818103600083015261354f81613162565b9050919050565b6000602082019050818103600083015261356f81613185565b9050919050565b6000602082019050818103600083015261358f816131a8565b9050919050565b600060208201905081810360008301526135af816131cb565b9050919050565b60006020820190506135cb60008301846131fd565b92915050565b60006040820190506135e660008301856131fd565b6135f36020830184612e96565b9392505050565b600060408201905061360f60008301856131fd565b61361c60208301846131fd565b9392505050565b600060608201905061363860008301866131fd565b61364560208301856131fd565b6136526040830184612e96565b949350505050565b6000613664613675565b90506136708282613911565b919050565b6000604051905090565b600067ffffffffffffffff82111561369a57613699613a47565b5b6136a382613a76565b9050602081019050919050565b6000819050602082019050919050565b600081519050919050565b600081519050919050565b6000602082019050919050565b600082825260208201905092915050565b600081905092915050565b600082825260208201905092915050565b600081905092915050565b600061372682613881565b915061373183613881565b9250827fffffffffffffffffffffffffffffffffffffffffffffffffffffffffffffffff038211156137665761376561398b565b5b828201905092915050565b600061377c82613881565b915061378783613881565b925082613797576137966139ba565b5b828204905092915050565b60006137ad82613881565b91506137b883613881565b9250817fffffffffffffffffffffffffffffffffffffffffffffffffffffffffffffffff04831182151516156137f1576137f061398b565b5b828202905092915050565b600061380782613881565b915061381283613881565b9250828210156138255761382461398b565b5b828203905092915050565b600061383b82613861565b9050919050565b60008115159050919050565b600081905061385c82613f14565b919050565b600073ffffffffffffffffffffffffffffffffffffffff82169050919050565b6000819050919050565b60006138968261384e565b9050919050565b82818337600083830152505050565b60005b838110156138ca5780820151818401526020810190506138af565b838111156138d9576000848401525b50505050565b600060028204905060018216806138f757607f821691505b6020821081141561390b5761390a613a18565b5b50919050565b61391a82613a76565b810181811067ffffffffffffffff8211171561393957613938613a47565b5b80604052505050565b600061394d82613881565b91507fffffffffffffffffffffffffffffffffffffffffffffffffffffffffffffffff8214156139805761397f61398b565b5b600182019050919050565b7f4e487b7100000000000000000000000000000000000000000000000000000000600052601160045260246000fd5b7f4e487b7100000000000000000000000000000000000000000000000000000000600052601260045260246000fd5b7f4e487b7100000000000000000000000000000000000000000000000000000000600052602160045260246000fd5b7f4e487b7100000000000000000000000000000000000000000000000000000000600052602260045260246000fd5b7f4e487b7100000000000000000000000000000000000000000000000000000000600052604160045260246000fd5b6000601f19601f8301169050919050565b7f436f6e747261637427732062616c616e636520746f6f206c6f7720746f20776960008201527f746864726177207375636820616d6f756e740000000000000000000000000000602082015250565b7f5061757361626c653a206e6f7420706175736564000000000000000000000000600082015250565b7f4e6f20616374697665207469636b657420666f756e6420666f7220746869732060008201527f706c617465000000000000000000000000000000000000000000000000000000602082015250565b7f526566756e6420616d6f756e742063616e6e6f74206265206e65676174697665600082015250565b7f5061726b696e67207a6f6e6520616c726561647920626f6f6b65640000000000600082015250565b7f4f776e61626c653a206e6577206f776e657220697320746865207a65726f206160008201527f6464726573730000000000000000000000000000000000000000000000000000602082015250565b7f4e756d626572206f66206d696e75746573206d7573742062652067726561746560008201527f72207468616e207a65726f000000000000000000000000000000000000000000602082015250565b7f596f752063616e27742067657420616e79206f7468657220706572736f6e277360008201527f2064657461696c00000000000000000000000000000000000000000000000000602082015250565b7f496e73756666696369656e742066756e64730000000000000000000000000000600082015250565b7f5061757361626c653a2070617573656400000000000000000000000000000000600082015250565b7f53746172742074696d652063616e277420626520696e20706173740000000000600082015250565b7f4e6f742061206d656d6265720000000000000000000000000000000000000000600082015250565b7f4f776e61626c653a2063616c6c6572206973206e6f7420746865206f776e6572600082015250565b7f4661696c656420746f2077697468647261772045746865720000000000000000600082015250565b7f596f752063616e6e6f74207472616e73666572207469636b657420746f20612060008201527f706c61746520776974682061637469766520737562736372697074696f6e0000602082015250565b50565b7f416c7265616479206e6f74206d656d6265720000000000000000000000000000600082015250565b7f596f75722073746172742074696d652069732066696e652062757420796f757260008201527f20656e642074696d65206973206f75726c617020746865206f7468657227732060208201527f73746172742074696d65206f662074686973207a6f6e65000000000000000000604082015250565b7f4f6e6c79207469636b6574206f776e65722063616e206d6f6469667920697400600082015250565b7f596f752061726520747279696e6720746f2072656e6577207469636b6574206660008201527f6f72206120646966666572656e74207061726b696e67207a6f6e650000000000602082015250565b7f416c72656164792061206d656d62657200000000000000000000000000000000600082015250565b60098110613f2557613f246139e9565b5b50565b613f3181613830565b8114613f3c57600080fd5b50565b60098110613f4c57600080fd5b50565b613f5881613881565b8114613f6357600080fd5b5056fea264697066735822122038e29c88e69dd0a1d2f23f87d0bb1bd133eb0bb42b607e85d7a6ce16bb7e883064736f6c63430008040033",
  "linkReferences": {},
  "deployedLinkReferences": {}
}