{
  "_format": "hh-sol-artifact-1",
  "contractName": "Parking",
  "sourceName": "contracts/Parking.sol",
  "abi": [
    {
      "inputs": [],
      "stateMutability": "nonpayable",
      "type": "constructor"
    },
    {
      "anonymous": false,
      "inputs": [
        {
          "indexed": true,
          "internalType": "string",
          "name": "plate",
          "type": "string"
        },
        {
          "indexed": false,
          "internalType": "uint256",
          "name": "numOfMinutes",
          "type": "uint256"
        },
        {
          "indexed": false,
          "internalType": "enum Parking.ParkingZone",
          "name": "zone",
          "type": "uint8"
        }
      ],
      "name": "LogTicketBought",
      "type": "event"
    },
    {
      "anonymous": false,
      "inputs": [
        {
          "indexed": true,
          "internalType": "string",
          "name": "plate",
          "type": "string"
        },
        {
          "indexed": false,
          "internalType": "uint256",
          "name": "balanceLeft",
          "type": "uint256"
        }
      ],
      "name": "LogTicketCanceled",
      "type": "event"
    },
    {
      "anonymous": false,
      "inputs": [
        {
          "indexed": true,
          "internalType": "string",
          "name": "plate",
          "type": "string"
        },
        {
          "indexed": false,
          "internalType": "uint256",
          "name": "numOfMinutes",
          "type": "uint256"
        },
        {
          "indexed": false,
          "internalType": "enum Parking.ParkingZone",
          "name": "zone",
          "type": "uint8"
        }
      ],
      "name": "LogTicketRenewed",
      "type": "event"
    },
    {
      "anonymous": false,
      "inputs": [
        {
          "indexed": true,
          "internalType": "string",
          "name": "oldPlate",
          "type": "string"
        },
        {
          "indexed": false,
          "internalType": "string",
          "name": "newPlate",
          "type": "string"
        }
      ],
      "name": "LogTicketTransfered",
      "type": "event"
    },
    {
      "anonymous": false,
      "inputs": [
        {
          "indexed": false,
          "internalType": "uint256",
          "name": "price",
          "type": "uint256"
        },
        {
          "indexed": false,
          "internalType": "enum Parking.ParkingZone",
          "name": "zone",
          "type": "uint8"
        }
      ],
      "name": "LogZonePriceChanged",
      "type": "event"
    },
    {
      "anonymous": false,
      "inputs": [
        {
          "indexed": true,
          "internalType": "address",
          "name": "previousOwner",
          "type": "address"
        },
        {
          "indexed": true,
          "internalType": "address",
          "name": "newOwner",
          "type": "address"
        }
      ],
      "name": "OwnershipTransferred",
      "type": "event"
    },
    {
      "anonymous": false,
      "inputs": [
        {
          "indexed": false,
          "internalType": "address",
          "name": "account",
          "type": "address"
        }
      ],
      "name": "Paused",
      "type": "event"
    },
    {
      "anonymous": false,
      "inputs": [
        {
          "indexed": false,
          "internalType": "address",
          "name": "account",
          "type": "address"
        }
      ],
      "name": "Unpaused",
      "type": "event"
    },
    {
      "inputs": [
        {
          "internalType": "string",
          "name": "plate",
          "type": "string"
        },
        {
          "internalType": "uint256",
          "name": "numOfMinutes",
          "type": "uint256"
        },
        {
          "internalType": "enum Parking.ParkingZone",
          "name": "zone",
          "type": "uint8"
        }
      ],
      "name": "buyTicket",
      "outputs": [],
      "stateMutability": "payable",
      "type": "function"
    },
    {
      "inputs": [
        {
          "internalType": "string",
          "name": "plate",
          "type": "string"
        }
      ],
      "name": "cancelTicket",
      "outputs": [],
      "stateMutability": "nonpayable",
      "type": "function"
    },
    {
      "inputs": [
        {
          "internalType": "uint256",
          "name": "price",
          "type": "uint256"
        },
        {
          "internalType": "enum Parking.ParkingZone",
          "name": "zone",
          "type": "uint8"
        }
      ],
      "name": "changeZonePrice",
      "outputs": [],
      "stateMutability": "nonpayable",
      "type": "function"
    },
    {
      "inputs": [
        {
          "internalType": "string",
          "name": "plate",
          "type": "string"
        }
      ],
      "name": "getTicket",
      "outputs": [
        {
          "internalType": "uint256",
          "name": "",
          "type": "uint256"
        },
        {
          "internalType": "enum Parking.ParkingZone",
          "name": "",
          "type": "uint8"
        }
      ],
      "stateMutability": "view",
      "type": "function"
    },
    {
      "inputs": [
        {
          "internalType": "string",
          "name": "plate",
          "type": "string"
        },
        {
          "internalType": "enum Parking.ParkingZone",
          "name": "zone",
          "type": "uint8"
        }
      ],
      "name": "isTicketValid",
      "outputs": [
        {
          "internalType": "bool",
          "name": "",
          "type": "bool"
        }
      ],
      "stateMutability": "view",
      "type": "function"
    },
    {
      "inputs": [],
      "name": "owner",
      "outputs": [
        {
          "internalType": "address",
          "name": "",
          "type": "address"
        }
      ],
      "stateMutability": "view",
      "type": "function"
    },
    {
      "inputs": [],
      "name": "pause",
      "outputs": [],
      "stateMutability": "nonpayable",
      "type": "function"
    },
    {
      "inputs": [],
      "name": "paused",
      "outputs": [
        {
          "internalType": "bool",
          "name": "",
          "type": "bool"
        }
      ],
      "stateMutability": "view",
      "type": "function"
    },
    {
      "inputs": [],
      "name": "renounceOwnership",
      "outputs": [],
      "stateMutability": "nonpayable",
      "type": "function"
    },
    {
      "inputs": [
        {
          "internalType": "address",
          "name": "newOwner",
          "type": "address"
        }
      ],
      "name": "transferOwnership",
      "outputs": [],
      "stateMutability": "nonpayable",
      "type": "function"
    },
    {
      "inputs": [
        {
          "internalType": "string",
          "name": "oldPlate",
          "type": "string"
        },
        {
          "internalType": "string",
          "name": "newPlate",
          "type": "string"
        },
        {
          "internalType": "address",
          "name": "newOwner",
          "type": "address"
        }
      ],
      "name": "transferTicket",
      "outputs": [],
      "stateMutability": "nonpayable",
      "type": "function"
    },
    {
      "inputs": [],
      "name": "unpause",
      "outputs": [],
      "stateMutability": "nonpayable",
      "type": "function"
    },
    {
      "inputs": [
        {
          "internalType": "uint256",
          "name": "value",
          "type": "uint256"
        }
      ],
      "name": "withdraw",
      "outputs": [],
      "stateMutability": "nonpayable",
      "type": "function"
    },
    {
      "inputs": [
        {
          "internalType": "enum Parking.ParkingZone",
          "name": "",
          "type": "uint8"
        }
      ],
      "name": "zonePricePerMinute",
      "outputs": [
        {
          "internalType": "uint256",
          "name": "",
          "type": "uint256"
        }
      ],
      "stateMutability": "view",
      "type": "function"
    }
  ],
  "bytecode": "0x60806040523480156200001157600080fd5b5062000032620000266200020360201b60201c565b6200020b60201b60201c565b60008060146101000a81548160ff0219169083151502179055506512309ce540006001600080600281111562000091577f4e487b7100000000000000000000000000000000000000000000000000000000600052602160045260246000fd5b6002811115620000ca577f4e487b7100000000000000000000000000000000000000000000000000000000600052602160045260246000fd5b815260200190815260200160002081905550650da475abf000600160006001600281111562000122577f4e487b7100000000000000000000000000000000000000000000000000000000600052602160045260246000fd5b60028111156200015b577f4e487b7100000000000000000000000000000000000000000000000000000000600052602160045260246000fd5b8152602001908152602001600020819055506509184e72a00060016000600280811115620001b2577f4e487b7100000000000000000000000000000000000000000000000000000000600052602160045260246000fd5b6002811115620001eb577f4e487b7100000000000000000000000000000000000000000000000000000000600052602160045260246000fd5b815260200190815260200160002081905550620002cf565b600033905090565b60008060009054906101000a900473ffffffffffffffffffffffffffffffffffffffff169050816000806101000a81548173ffffffffffffffffffffffffffffffffffffffff021916908373ffffffffffffffffffffffffffffffffffffffff1602179055508173ffffffffffffffffffffffffffffffffffffffff168173ffffffffffffffffffffffffffffffffffffffff167f8be0079c531659141344cd1fd0a4f28419497f9722a3daafe3b4186f6b6457e060405160405180910390a35050565b61248980620002df6000396000f3fe6080604052600436106100dd5760003560e01c80638456cb591161007f578063ae78f47111610059578063ae78f47114610266578063c755ec3c1461028f578063f2fde38b146102b8578063fc2a783e146102e1576100dd565b80638456cb59146101fb5780638c812a91146102125780638da5cb5b1461023b576100dd565b8063439f9b2a116100bb578063439f9b2a1461013e57806351f7b4431461017b5780635c975abb146101b9578063715018a6146101e4576100dd565b80631dddef82146100e25780632e1a7d4d146100fe5780633f4ba83a14610127575b600080fd5b6100fc60048036038101906100f791906118af565b61031e565b005b34801561010a57600080fd5b5061012560048036038101906101209190611916565b61073e565b005b34801561013357600080fd5b5061013c6108ad565b005b34801561014a57600080fd5b50610165600480360381019061016091906117dc565b610933565b6040516101729190611c2f565b60405180910390f35b34801561018757600080fd5b506101a2600480360381019061019d919061179b565b610a0a565b6040516101b0929190611e07565b60405180910390f35b3480156101c557600080fd5b506101ce610a67565b6040516101db9190611c2f565b60405180910390f35b3480156101f057600080fd5b506101f9610a7d565b005b34801561020757600080fd5b50610210610b05565b005b34801561021e57600080fd5b5061023960048036038101906102349190611830565b610b8b565b005b34801561024757600080fd5b50610250610ebf565b60405161025d9190611c14565b60405180910390f35b34801561027257600080fd5b5061028d6004803603810190610288919061193f565b610ee8565b005b34801561029b57600080fd5b506102b660048036038101906102b1919061179b565b611029565b005b3480156102c457600080fd5b506102df60048036038101906102da9190611749565b611382565b005b3480156102ed57600080fd5b5061030860048036038101906103039190611772565b61147a565b6040516103159190611dec565b60405180910390f35b610326610a67565b15610366576040517f08c379a000000000000000000000000000000000000000000000000000000000815260040161035d90611d4c565b60405180910390fd5b34600160008360028111156103a4577f4e487b7100000000000000000000000000000000000000000000000000000000600052602160045260246000fd5b60028111156103dc577f4e487b7100000000000000000000000000000000000000000000000000000000600052602160045260246000fd5b815260200190815260200160002054836103f69190611f3f565b1115610437576040517f08c379a000000000000000000000000000000000000000000000000000000000815260040161042e90611d0c565b60405180910390fd5b60006002846040516104499190611be8565b908152602001604051809103902090506000603c846104689190611f3f565b905042826000015411156105a5578260028111156104af577f4e487b7100000000000000000000000000000000000000000000000000000000600052602160045260246000fd5b8260010160149054906101000a900460ff1660028111156104f9577f4e487b7100000000000000000000000000000000000000000000000000000000600052602160045260246000fd5b14610539576040517f08c379a000000000000000000000000000000000000000000000000000000000815260040161053090611ccc565b60405180910390fd5b8082600001546105499190611eb8565b82600001819055508460405161055f9190611be8565b60405180910390207fd16529fb8a6a56de467232da502fe9a4c6b9d29b27e37756ec4d3a42e7605e708585604051610598929190611e07565b60405180910390a2610737565b600081426105b39190611eb8565b905060405180606001604052808281526020013373ffffffffffffffffffffffffffffffffffffffff16815260200185600281111561061b577f4e487b7100000000000000000000000000000000000000000000000000000000600052602160045260246000fd5b81525060028760405161062e9190611be8565b90815260200160405180910390206000820151816000015560208201518160010160006101000a81548173ffffffffffffffffffffffffffffffffffffffff021916908373ffffffffffffffffffffffffffffffffffffffff16021790555060408201518160010160146101000a81548160ff021916908360028111156106de577f4e487b7100000000000000000000000000000000000000000000000000000000600052602160045260246000fd5b0217905550905050856040516106f49190611be8565b60405180910390207febe98b70659ff1f7dbe0cb844f13916097b5899322ec27fe52fd830b1650e14b868660405161072d929190611e07565b60405180910390a2505b5050505050565b610746611492565b73ffffffffffffffffffffffffffffffffffffffff16610764610ebf565b73ffffffffffffffffffffffffffffffffffffffff16146107ba576040517f08c379a00000000000000000000000000000000000000000000000000000000081526004016107b190611d6c565b60405180910390fd5b478111156107fd576040517f08c379a00000000000000000000000000000000000000000000000000000000081526004016107f490611c6c565b60405180910390fd5b60003373ffffffffffffffffffffffffffffffffffffffff168260405161082390611bff565b60006040518083038185875af1925050503d8060008114610860576040519150601f19603f3d011682016040523d82523d6000602084013e610865565b606091505b50509050806108a9576040517f08c379a00000000000000000000000000000000000000000000000000000000081526004016108a090611d8c565b60405180910390fd5b5050565b6108b5611492565b73ffffffffffffffffffffffffffffffffffffffff166108d3610ebf565b73ffffffffffffffffffffffffffffffffffffffff1614610929576040517f08c379a000000000000000000000000000000000000000000000000000000000815260040161092090611d6c565b60405180910390fd5b61093161149a565b565b600081600281111561096e577f4e487b7100000000000000000000000000000000000000000000000000000000600052602160045260246000fd5b60028460405161097e9190611be8565b908152602001604051809103902060010160149054906101000a900460ff1660028111156109d5577f4e487b7100000000000000000000000000000000000000000000000000000000600052602160045260246000fd5b148015610a025750426002846040516109ee9190611be8565b908152602001604051809103902060000154115b905092915050565b600080600283604051610a1d9190611be8565b908152602001604051809103902060000154600284604051610a3f9190611be8565b908152602001604051809103902060010160149054906101000a900460ff1691509150915091565b60008060149054906101000a900460ff16905090565b610a85611492565b73ffffffffffffffffffffffffffffffffffffffff16610aa3610ebf565b73ffffffffffffffffffffffffffffffffffffffff1614610af9576040517f08c379a0000000000000000000000000000000000000000000000000000000008152600401610af090611d6c565b60405180910390fd5b610b03600061153b565b565b610b0d611492565b73ffffffffffffffffffffffffffffffffffffffff16610b2b610ebf565b73ffffffffffffffffffffffffffffffffffffffff1614610b81576040517f08c379a0000000000000000000000000000000000000000000000000000000008152600401610b7890611d6c565b60405180910390fd5b610b896115ff565b565b82600281604051610b9c9190611be8565b908152602001604051809103902060010160009054906101000a900473ffffffffffffffffffffffffffffffffffffffff1673ffffffffffffffffffffffffffffffffffffffff163373ffffffffffffffffffffffffffffffffffffffff1614610c3b576040517f08c379a0000000000000000000000000000000000000000000000000000000008152600401610c3290611dcc565b60405180910390fd5b42600284604051610c4c9190611be8565b9081526020016040518091039020600001541115610c9f576040517f08c379a0000000000000000000000000000000000000000000000000000000008152600401610c9690611dac565b60405180910390fd5b6000600285604051610cb19190611be8565b908152602001604051809103902090506040518060600160405280826000015481526020018473ffffffffffffffffffffffffffffffffffffffff1681526020018260010160149054906101000a900460ff166002811115610d3c577f4e487b7100000000000000000000000000000000000000000000000000000000600052602160045260246000fd5b815250600285604051610d4f9190611be8565b90815260200160405180910390206000820151816000015560208201518160010160006101000a81548173ffffffffffffffffffffffffffffffffffffffff021916908373ffffffffffffffffffffffffffffffffffffffff16021790555060408201518160010160146101000a81548160ff02191690836002811115610dff577f4e487b7100000000000000000000000000000000000000000000000000000000600052602160045260246000fd5b0217905550905050600285604051610e179190611be8565b90815260200160405180910390206000808201600090556001820160006101000a81549073ffffffffffffffffffffffffffffffffffffffff02191690556001820160146101000a81549060ff0219169055505084604051610e799190611be8565b60405180910390207fc2a69330f99b1e078d7764e6044e7ef780f245d71758b897ea9cfc5b119c909185604051610eb09190611c4a565b60405180910390a25050505050565b60008060009054906101000a900473ffffffffffffffffffffffffffffffffffffffff16905090565b610ef0611492565b73ffffffffffffffffffffffffffffffffffffffff16610f0e610ebf565b73ffffffffffffffffffffffffffffffffffffffff1614610f64576040517f08c379a0000000000000000000000000000000000000000000000000000000008152600401610f5b90611d6c565b60405180910390fd5b8160016000836002811115610fa2577f4e487b7100000000000000000000000000000000000000000000000000000000600052602160045260246000fd5b6002811115610fda577f4e487b7100000000000000000000000000000000000000000000000000000000600052602160045260246000fd5b8152602001908152602001600020819055507f99df02a3fdcac8d064a16764ba948d48f5c411dbfdaefb35c5c3bbf2aee68031828260405161101d929190611e07565b60405180910390a15050565b8060028160405161103a9190611be8565b908152602001604051809103902060010160009054906101000a900473ffffffffffffffffffffffffffffffffffffffff1673ffffffffffffffffffffffffffffffffffffffff163373ffffffffffffffffffffffffffffffffffffffff16146110d9576040517f08c379a00000000000000000000000000000000000000000000000000000000081526004016110d090611dcc565b60405180910390fd5b60006002836040516110eb9190611be8565b9081526020016040518091039020905042816000015411611141576040517f08c379a000000000000000000000000000000000000000000000000000000000815260040161113890611c8c565b60405180910390fd5b6000603c4283600001546111559190611f99565b61115f9190611f0e565b90506000600a6009600160008660010160149054906101000a900460ff1660028111156111b5577f4e487b7100000000000000000000000000000000000000000000000000000000600052602160045260246000fd5b60028111156111ed577f4e487b7100000000000000000000000000000000000000000000000000000000600052602160045260246000fd5b815260200190815260200160002054846112079190611f3f565b6112119190611f3f565b61121b9190611f0e565b905060028560405161122d9190611be8565b90815260200160405180910390206000808201600090556001820160006101000a81549073ffffffffffffffffffffffffffffffffffffffff02191690556001820160146101000a81549060ff0219169055505060003373ffffffffffffffffffffffffffffffffffffffff16826040516112a790611bff565b60006040518083038185875af1925050503d80600081146112e4576040519150601f19603f3d011682016040523d82523d6000602084013e6112e9565b606091505b505090508061132d576040517f08c379a000000000000000000000000000000000000000000000000000000000815260040161132490611d2c565b60405180910390fd5b8560405161133b9190611be8565b60405180910390207fe95c73ebcd15155aa5ea02f78b87d824272b83e2d504fb346a88e0a08a001b3f836040516113729190611dec565b60405180910390a2505050505050565b61138a611492565b73ffffffffffffffffffffffffffffffffffffffff166113a8610ebf565b73ffffffffffffffffffffffffffffffffffffffff16146113fe576040517f08c379a00000000000000000000000000000000000000000000000000000000081526004016113f590611d6c565b60405180910390fd5b600073ffffffffffffffffffffffffffffffffffffffff168173ffffffffffffffffffffffffffffffffffffffff16141561146e576040517f08c379a000000000000000000000000000000000000000000000000000000000815260040161146590611cec565b60405180910390fd5b6114778161153b565b50565b60016020528060005260406000206000915090505481565b600033905090565b6114a2610a67565b6114e1576040517f08c379a00000000000000000000000000000000000000000000000000000000081526004016114d890611cac565b60405180910390fd5b60008060146101000a81548160ff0219169083151502179055507f5db9ee0a495bf2e6ff9c91a7834c1ba4fdd244a5e8aa4e537bd38aeae4b073aa611524611492565b6040516115319190611c14565b60405180910390a1565b60008060009054906101000a900473ffffffffffffffffffffffffffffffffffffffff169050816000806101000a81548173ffffffffffffffffffffffffffffffffffffffff021916908373ffffffffffffffffffffffffffffffffffffffff1602179055508173ffffffffffffffffffffffffffffffffffffffff168173ffffffffffffffffffffffffffffffffffffffff167f8be0079c531659141344cd1fd0a4f28419497f9722a3daafe3b4186f6b6457e060405160405180910390a35050565b611607610a67565b15611647576040517f08c379a000000000000000000000000000000000000000000000000000000000815260040161163e90611d4c565b60405180910390fd5b6001600060146101000a81548160ff0219169083151502179055507f62e78cea01bee320cd4e420270b5ea74000d11b0c9f74754ebdbfc544b05a25861168b611492565b6040516116989190611c14565b60405180910390a1565b60006116b56116b084611e55565b611e30565b9050828152602081018484840111156116cd57600080fd5b6116d884828561203a565b509392505050565b6000813590506116ef81612415565b92915050565b6000813590506117048161242c565b92915050565b600082601f83011261171b57600080fd5b813561172b8482602086016116a2565b91505092915050565b6000813590506117438161243c565b92915050565b60006020828403121561175b57600080fd5b6000611769848285016116e0565b91505092915050565b60006020828403121561178457600080fd5b6000611792848285016116f5565b91505092915050565b6000602082840312156117ad57600080fd5b600082013567ffffffffffffffff8111156117c757600080fd5b6117d38482850161170a565b91505092915050565b600080604083850312156117ef57600080fd5b600083013567ffffffffffffffff81111561180957600080fd5b6118158582860161170a565b9250506020611826858286016116f5565b9150509250929050565b60008060006060848603121561184557600080fd5b600084013567ffffffffffffffff81111561185f57600080fd5b61186b8682870161170a565b935050602084013567ffffffffffffffff81111561188857600080fd5b6118948682870161170a565b92505060406118a5868287016116e0565b9150509250925092565b6000806000606084860312156118c457600080fd5b600084013567ffffffffffffffff8111156118de57600080fd5b6118ea8682870161170a565b93505060206118fb86828701611734565b925050604061190c868287016116f5565b9150509250925092565b60006020828403121561192857600080fd5b600061193684828501611734565b91505092915050565b6000806040838503121561195257600080fd5b600061196085828601611734565b9250506020611971858286016116f5565b9150509250929050565b61198481611fcd565b82525050565b61199381611fdf565b82525050565b6119a281612028565b82525050565b60006119b382611e86565b6119bd8185611e9c565b93506119cd818560208601612049565b6119d681612169565b840191505092915050565b60006119ec82611e86565b6119f68185611ead565b9350611a06818560208601612049565b80840191505092915050565b6000611a1f603283611e9c565b9150611a2a8261217a565b604082019050919050565b6000611a42601e83611e9c565b9150611a4d826121c9565b602082019050919050565b6000611a65601483611e9c565b9150611a70826121f2565b602082019050919050565b6000611a88603583611e9c565b9150611a938261221b565b604082019050919050565b6000611aab602683611e9c565b9150611ab68261226a565b604082019050919050565b6000611ace601883611e9c565b9150611ad9826122b9565b602082019050919050565b6000611af1601683611e9c565b9150611afc826122e2565b602082019050919050565b6000611b14601083611e9c565b9150611b1f8261230b565b602082019050919050565b6000611b37602083611e9c565b9150611b4282612334565b602082019050919050565b6000611b5a601883611e9c565b9150611b658261235d565b602082019050919050565b6000611b7d603e83611e9c565b9150611b8882612386565b604082019050919050565b6000611ba0600083611e91565b9150611bab826123d5565b600082019050919050565b6000611bc3601f83611e9c565b9150611bce826123d8565b602082019050919050565b611be28161201e565b82525050565b6000611bf482846119e1565b915081905092915050565b6000611c0a82611b93565b9150819050919050565b6000602082019050611c29600083018461197b565b92915050565b6000602082019050611c44600083018461198a565b92915050565b60006020820190508181036000830152611c6481846119a8565b905092915050565b60006020820190508181036000830152611c8581611a12565b9050919050565b60006020820190508181036000830152611ca581611a35565b9050919050565b60006020820190508181036000830152611cc581611a58565b9050919050565b60006020820190508181036000830152611ce581611a7b565b9050919050565b60006020820190508181036000830152611d0581611a9e565b9050919050565b60006020820190508181036000830152611d2581611ac1565b9050919050565b60006020820190508181036000830152611d4581611ae4565b9050919050565b60006020820190508181036000830152611d6581611b07565b9050919050565b60006020820190508181036000830152611d8581611b2a565b9050919050565b60006020820190508181036000830152611da581611b4d565b9050919050565b60006020820190508181036000830152611dc581611b70565b9050919050565b60006020820190508181036000830152611de581611bb6565b9050919050565b6000602082019050611e016000830184611bd9565b92915050565b6000604082019050611e1c6000830185611bd9565b611e296020830184611999565b9392505050565b6000611e3a611e4b565b9050611e46828261207c565b919050565b6000604051905090565b600067ffffffffffffffff821115611e7057611e6f61213a565b5b611e7982612169565b9050602081019050919050565b600081519050919050565b600081905092915050565b600082825260208201905092915050565b600081905092915050565b6000611ec38261201e565b9150611ece8361201e565b9250827fffffffffffffffffffffffffffffffffffffffffffffffffffffffffffffffff03821115611f0357611f026120ad565b5b828201905092915050565b6000611f198261201e565b9150611f248361201e565b925082611f3457611f336120dc565b5b828204905092915050565b6000611f4a8261201e565b9150611f558361201e565b9250817fffffffffffffffffffffffffffffffffffffffffffffffffffffffffffffffff0483118215151615611f8e57611f8d6120ad565b5b828202905092915050565b6000611fa48261201e565b9150611faf8361201e565b925082821015611fc257611fc16120ad565b5b828203905092915050565b6000611fd882611ffe565b9050919050565b60008115159050919050565b6000819050611ff982612401565b919050565b600073ffffffffffffffffffffffffffffffffffffffff82169050919050565b6000819050919050565b600061203382611feb565b9050919050565b82818337600083830152505050565b60005b8381101561206757808201518184015260208101905061204c565b83811115612076576000848401525b50505050565b61208582612169565b810181811067ffffffffffffffff821117156120a4576120a361213a565b5b80604052505050565b7f4e487b7100000000000000000000000000000000000000000000000000000000600052601160045260246000fd5b7f4e487b7100000000000000000000000000000000000000000000000000000000600052601260045260246000fd5b7f4e487b7100000000000000000000000000000000000000000000000000000000600052602160045260246000fd5b7f4e487b7100000000000000000000000000000000000000000000000000000000600052604160045260246000fd5b6000601f19601f8301169050919050565b7f436f6e747261637427732062616c616e636520746f6f206c6f7720746f20776960008201527f746864726177207375636820616d6f756e740000000000000000000000000000602082015250565b7f546865207469636b65742068617320616c726561647920657870697265640000600082015250565b7f5061757361626c653a206e6f7420706175736564000000000000000000000000600082015250565b7f596f752061726520747279696e6720746f2072656e6577207469636b6574206660008201527f6f72206f74686572207061726b696e67207a6f6e650000000000000000000000602082015250565b7f4f776e61626c653a206e6577206f776e657220697320746865207a65726f206160008201527f6464726573730000000000000000000000000000000000000000000000000000602082015250565b7f416d6f756e74206973206e6f742073756666696369656e740000000000000000600082015250565b7f4661696c656420746f2072657475726e2066756e647300000000000000000000600082015250565b7f5061757361626c653a2070617573656400000000000000000000000000000000600082015250565b7f4f776e61626c653a2063616c6c6572206973206e6f7420746865206f776e6572600082015250565b7f4661696c656420746f2077697468647261772045746865720000000000000000600082015250565b7f596f752063616e6e6f74207472616e73666572207469636b657420746f20612060008201527f706c61746520776974682061637469766520737562736372697074696f6e0000602082015250565b50565b7f4f6e6c79207469636b6574206f776e65722063616e206d6f6469667920697400600082015250565b600381106124125761241161210b565b5b50565b61241e81611fcd565b811461242957600080fd5b50565b6003811061243957600080fd5b50565b6124458161201e565b811461245057600080fd5b5056fea2646970667358221220fe9dd5be0e494bebce96b6cb8c3ad8f5ced894bf073fb98c07bed8aee812b3bb64736f6c63430008040033",
  "linkReferences": {},
  "deployedLinkReferences": {}
}